S01A00006469676974616C546865726D6F6D657465722E73726563A0
S113000014C02CC02BC02AC029C028C027C026C0B9
S113001025C024C023C022C021C020C01FC01EC0D0
S11300201DC01CC01BC01AC019C011241FBECFEDB7
S1130030CDBF10E0A0E6B0E0E6E0F4E002C0059039
S11300400D92A037B107D9F720E0A0E7B0E001C0D6
S11300501D92AA37B207E1F7DFD0D3C1D1CF97B34E
S1130060976097BB97B3986797BBC198662311F0C5
S1130070C09A01C0C098C29A98B3977898BB83FD80
S1130080C69A82FDC59A81FDC49A80FDC39A8DE00B
S11300908A95F1F70000C2980895CF93DF93C82F93
S11300A0D62F82958F70DBDF6D2F8C2FD8DFDF91F9
S11300B0CF9108958FEC97E00197F1F700C000000D
S11300C060E082E0CCDF8FEC97E00197F1F700C0AD
S11300D0000060E088E2E1DF8FEC97E00197F1F740
S11300E000C0000060E081E0D8DF8FEC97E001976A
S11300F0F1F700C0000060E086E0CFDF8FEC97E00E
S11301000197F1F700C0000060E08CE0C6DF0895BD
S1130110EFECF7E03197F1F700C0000060E08C608D
S1130120BCDF0895EFECF7E03197F1F700C0000071
S113013060E08860B2DF08958FEC97E00197F1F7F3
S113014000C0000060E081E0A8DF0895EFECF7E074
S11301503197F1F700C000008295880F880F807CEA
S1130160860F60E0806899DF0895CF93DF93FC01E8
S11301702081222369F0EC018FEC97E00197F1F7DD
S113018000C0000061E0899188DF88818111F4CF8B
S1130190DF91CF9108958E9A96982FEF89EF90E092
S11301A0215080409040E1F700C00000969A0895E5
S11301B08E988699FECF869BFECF8699FECF0895B2
S11301C088E090E0869BFECF20E52A95F1F7869B98
S11301D007C020917000220F21602093700005C099
S11301E020917000220F209370008699FECF019712
S11301F049F78091700008952091720080917600F3
S113020090E0820F911D20917100820F911D209129
S11302107500820F911D0895CF93DF93CDB7DD272D
S1130220C350CDBF47DF88DF84E07CDF80E070DF30
S1130230B2DFBEDFC5DF80937200C2DF8093760039
S1130240BFDF80937100BCDF80937500B9DF182F86
S113025080937700D1DF212F30E08217930739F0A4
S113026061E080E073DF80E690E07FDF5CC064DF04
S113027060E080E06BDF86E690E077DF63E080E0BB
S113028065DF8091720090E0982F88272091760096
S1130290820F911D90937900809378004AE050E09A
S11302A0BE016F5F7F4F70D0CE0101965EDF60E0CC
S11302B081E04CDF89E690E058DF63E081E046DFCF
S11302C00091710010E0102F002780917500080F35
S11302D0111D10937400009373004AE050E0BE01B6
S11302E06F5F7F4FC80150D0CE0101963EDF65E0BD
S11302F081E02CDF8CE690E038DF66E081E026DFE9
S1130300C8016AE070E019D04AE050E0BE016F5FB6
S11303107F4F3AD0CE01019628DF68E081E016DFF6
S11303208EE690E022DF2FEF89E698E121508040AD
S11303309040E1F700C000007BCF97FB072E16F436
S1130340009406D077FD08D00BD007FC05D03EF40E
S1130350909581959F4F0895709561957F4F08956D
S1130360AA1BBB1B51E107C0AA1FBB1FA617B707D7
S113037010F0A61BB70B881F991F5A95A9F78095F3
S11303809095BC01CD0108954532510518F44230D1
S113039008F004C0FB011082CB010895BB274A304A
S11303A031F4992322F4BDE2909581959F4F01C0C9
S11303B0BB27FB015527AA27880F991FAA1FA4173B
S11303C010F0A41B83955051B9F7A05DAA3308F02F
S11303D0A95DA193009779F7B111B1931192CB0163
S11303E000C0DC01FC01672F71917723E1F732979C
S11303F004C07C916D9370836291AE17BF07C8F3FC
S10904000895F894FFCFFB
S11304064572726F7200483D00543D002E00430051
S9030000FC
