S01A00006469676974616C546865726D6F6D657465722E73726563A0
S113000014C02CC02BC02AC029C028C027C026C0B9
S113001025C024C023C022C021C020C01FC01EC0D0
S11300201DC01CC01BC01AC019C011241FBECFEDB7
S1130030CDBF10E0A0E6B0E0E6EDF6E002C005902A
S11300400D92AE39B107D9F720E0AEE9B0E001C0B6
S11300501D92A83AB207E1F74BD23BC3D1CF97B375
S1130060976097BB97B3986797BBC198662311F0C5
S1130070C09A01C0C098C29A98B3977898BB83FD80
S1130080C69A82FDC59A81FDC49A80FDC39A8DE00B
S11300908A95F1F70000C2980895CF93DF93C82F93
S11300A0D62F82958F70DBDF6D2F8C2FD8DFDF91F9
S11300B0CF9108958FEC97E00197F1F700C000000D
S11300C060E082E0CCDF8FEC97E00197F1F700C0AD
S11300D0000060E088E2E1DF8FEC97E00197F1F740
S11300E000C0000060E081E0D8DF8FEC97E001976A
S11300F0F1F700C0000060E086E0CFDF8FEC97E00E
S11301000197F1F700C0000060E08CE0C6DF0895BD
S1130110EFECF7E03197F1F700C0000060E08C608D
S1130120BCDF0895EFECF7E03197F1F700C0000071
S113013060E08860B2DF08958FEC97E00197F1F7F3
S113014000C0000060E081E0A8DF0895EFECF7E074
S11301503197F1F700C000008295880F880F807CEA
S1130160860F60E0806899DF0895CF93DF93FC01E8
S11301702081222369F0EC018FEC97E00197F1F7DD
S113018000C0000061E0899188DF88818111F4CF8B
S1130190DF91CF910895CF93DF93EC018091A60076
S11301A09091A70084369105D0F460E080E0CEDF22
S11301B080E690E0DADF63E080E0C8DF4AE050E008
S11301C0BE018091A6009091A70046D2CE01CDDF5A
S11301D065E080E0BBDF84E690E0C7DF19C060E043
S11301E080E0B4DF86E690E0C0DF62E080E0AEDF6E
S11301F04AE050E0BE018091A6009091A7002CD265
S1130200CE01B3DF65E080E0A1DF84E690E0ADDFFE
S1130210DF91CF9108958E9A96988FE39CE9019788
S1130220F1F700C00000969A08958E988699FECF43
S1130230869BFECF8699FECF089588E090E0869B4A
S1130240FECF20E52A95F1F7869B07C020919E00FA
S1130250220F216020939E0005C020919E00220F52
S113026020939E008699FECF019749F780919E00C6
S113027008952091A0008091A40090E0820F911D28
S113028020919F00820F911D2091A300820F911D48
S1130290089560E080E05ADF89E690E066DF60E080
S11302A081E054DF82E790E060DF0895EF92FF92EF
S11302B00F931F93CF93DF938C019B01CB016AE0D3
S11302C070E0B7D1EB017B01C901992324F488279D
S11302D09927821B930B889709F463C0CE01FF20F2
S11302E024F4882799278C1B9D0B0A970CF042C095
S11302F060E081E02BDF8BE790E037DF63E081E0B3
S113030025DF4AE050E0B801CE01A6D1C8012DDFB7
S113031065E081E01BDF89E790E027DF66E081E0AC
S113032015DF8FE790E021DFEF28E1F560E081E061
S11303300DDF8BE790E019DF63E081E007DF4AE03F
S113034050E0B80180E090E087D1C8010EDF64E09E
S113035081E0FCDE82E890E008DF65E081E0F6DE23
S113036084E890E002DF66E081E0F0DE8FE790E071
S1130370FCDE18C060E081E0E9DE86E890E0F5DEAE
S113038062E081E0E3DE4AE050E0B801CE0164D1EE
S1130390C801EBDE65E081E0D9DE8FE790E0E5DEC1
S11303A001C077DFDF91CF911F910F91FF90EF9004
S11303B00895EF92FF920F931F93CF93DF93EC0175
S11303C07B018091A1009091A2006AE070E01DD1B0
S11303D0062F172F862F972F8035910509F452C0C9
S11303E00A9740F560E081E0B1DE8BE790E0BDDE86
S11303F063E081E0ABDE4AE050E0BE01802F912F44
S11304002BD1CE01B2DE64E081E0A0DE82E890E090
S1130410ACDE65E081E09ADE4AE050E0BE01C7014F
S11304201BD1CE01A2DE66E081E090DE89E890E097
S11304309CDE29C060E081E089DE86E890E095DEFC
S113044062E081E083DE4AE050E0BE01802F912F1C
S113045003D1CE018ADE64E081E078DE82E890E0B8
S113046084DE65E081E072DE4AE050E0BE01C7014F
S1130470F3D0CE017ADE66E081E068DE89E890E0C0
S113048074DE01C006DFDF91CF911F910F91FF90C1
S1130490EF90089592B989B982E08BB988E18AB95D
S11304A08EE083B908955D9BFECF8CB908951F93A8
S11304B0CF93DF9360E177E2A8D064E670E0A5D043
S11304C0D82FCAE0862F6C2F94D0192F805DEBDFD4
S11304D080E3810FE8DF8D2F6C2F8BD0C92F805DD7
S11304E0E2DF80E38C0FDFDFDF91CF911F9108956E
S11304F0CF93DF93CDB7DD27C650CDBFDBDD60E002
S113050080E024DE8BE890E030DE60E081E01EDEF7
S113051084E990E02ADE2FEF8DE399E421508040B6
S11305209040E1F700C0000007DE84E0FBDD80E0DE
S1130530EFDD8FE290E0AEDF0F2EFAE0EF2EF12C2C
S1130540F02D85E190E0B3DF66DE6FDE76DE80932A
S1130550A00073DE8093A40070DE80939F006DDEA4
S11305608093A3006ADE182F8093A50082DE99276A
S1130570212F30E08217930711F08BDE30C0809179
S1130580A00090E0982F88272091A400820F911D4D
S1130590B7014FD07093A7006093A600CE010496D4
S11305A0FADD80919F0090E0982F88272091A30086
S11305B0820F911D9093A2008093A10099234CF483
S11305C09F7766277727681B790BCE0101966EDE2D
S11305D006C0B7011AD0BC01CE010196EADE2FEFA6
S11305E089E698E1215080409040E1F700C0000086
S11305F0A8CF991B79E004C0991F961708F0961BA1
S1130600881F7A95C9F780950895AA1BBB1B51E1F1
S113061007C0AA1FBB1FA617B70710F0A61BB70B6E
S1130620881F991F5A95A9F780959095BC01CD0113
S1130630089597FB072E16F4009406D077FD08D092
S1130640E4DF07FC05D03EF4909581959F4F089513
S1130650709561957F4F08954532510518F44230E5
S113066008F004C0FB011082CB010895BB274A3077
S113067031F4992322F4BDE2909581959F4F01C0F6
S1130680BB27FB015527AA27880F991FAA1FA41768
S113069010F0A41B83955051B9F7A05DAA3308F05C
S11306A0A95DA193009779F7B111B1931192CB0190
S11306B000C0DC01FC01672F71917723E1F73297C9
S11306C004C07C916D9370836291AE17BF07C8F329
S10906D00895F894FFCF29
S11306D6483D20002500483D0053656E73202020C8
S11306E62000457272202020202000543D20004323
S11306F620002E003000543D00430054696E7920DA
S1110706202020005465726D20202020000069
S9030000FC
