S01A00006469676974616C546865726D6F6D657465722E73726563A0
S113000014C02CC02BC02AC029C028C027C026C0B9
S113001025C024C023C022C021C020C01FC01EC0D0
S11300201DC01CC01BC01AC019C011241FBECFEDB7
S1130030CDBF10E0A0E6B0E0EAEDF3E002C0059029
S11300400D92AA36B107D9F720E0AAE6B0E001C0C4
S11300501D92A437B207E1F70AD1BDC1D1CF97B33E
S1130060976097BB97B3986797BBC198662311F0C5
S1130070C09A01C0C098C29A98B3977898BB83FD80
S1130080C69A82FDC59A81FDC49A80FDC39A8DE00B
S11300908A95F1F70000C2980895CF93DF93C82F93
S11300A0D62F82958F70DBDF6D2F8C2FD8DFDF91F9
S11300B0CF9108958FEC97E00197F1F700C000000D
S11300C060E082E0CCDF8FEC97E00197F1F700C0AD
S11300D0000060E088E2E1DF8FEC97E00197F1F740
S11300E000C0000060E081E0D8DF8FEC97E001976A
S11300F0F1F700C0000060E086E0CFDF8FEC97E00E
S11301000197F1F700C0000060E08CE0C6DF0895BD
S1130110EFECF7E03197F1F700C0000060E08C608D
S1130120BCDF0895EFECF7E03197F1F700C0000071
S113013060E08860B2DF08958FEC97E00197F1F7F3
S113014000C0000060E081E0A8DF0895EFECF7E074
S11301503197F1F700C000008295880F880F807CEA
S1130160860F60E0806899DF0895CF93DF93FC01E8
S11301702081222369F0EC018FEC97E00197F1F7DD
S113018000C0000061E0899188DF88818111F4CF8B
S1130190DF91CF910895CF93DF93EC0160E080E08D
S11301A0D5DF80E690E0E1DF62E080E0CFDF4AE087
S11301B050E0BE018091720090917300CFD0CE01C7
S11301C0D4DF65E080E0C2DF83E690E0CEDFDF913C
S11301D0CF910895CF93DF93EC0160E081E0B6DF27
S11301E085E690E0C2DF62E081E0B0DF4AE050E003
S11301F0BE0180916D0090916E00B0D0CE01B5DF4C
S113020066E081E0A3DF88E690E0AFDFDF91CF9185
S113021008958E9A96988FE39CE90197F1F700C0B0
S11302200000969A08958E988699FECF869BFECFFD
S11302308699FECF089588E090E0869BFECF20E566
S11302402A95F1F7869B07C020916A00220F21604E
S113025020936A0005C020916A00220F20936A004F
S11302608699FECF019749F780916A000895CF934C
S1130270DF93CDB7DD27C350CDBF1CDF5DDF84E046
S113028051DF80E045DF0AE010E0C3DFCCDFD3DFDD
S113029080936C00D0DF80937000CDDF80936B007F
S11302A0CADF80936F00C7DF80937100CE0101968F
S11302B072DF80916C0090E0982F88272091700065
S11302C0820F911DB80123D0709373006093720064
S11302D0CE01019660DF80916B0090E0982F882713
S11302E020916F00820F911D90936E0080936D009A
S11302F060E070E0CE0101966DDF2FEF89E698E1B2
S1130300215080409040E1F700C00000BECF97FB31
S1130310072E16F4009406D077FD08D00BD007FC06
S113032005D03EF4909581959F4F08957095619501
S11303307F4F0895AA1BBB1B51E107C0AA1FBB1F17
S1130340A617B70710F0A61BB70B881F991F5A955D
S1130350A9F780959095BC01CD01089545325105CA
S113036018F4423008F004C0FB011082CB01089558
S1130370BB274A3031F4992322F4BDE2909581954C
S11303809F4F01C0BB27FB015527AA27880F991F40
S1130390AA1FA41710F0A41B83955051B9F7A05DB0
S11303A0AA3308F0A95DA193009779F7B111B1932D
S11303B01192CB0100C0DC01FC01672F71917723FE
S11303C0E1F7329704C07C916D9370836291AE170C
S10D03D0BF07C8F30895F894FFCFA7
S10D03DA483D002500543D00430097
S9030000FC
