S01A00006469676974616C546865726D6F6D657465722E73726563A0
S113000014C02CC02BC02AC029C028C027C026C0B9
S113001025C024C023C022C021C020C01FC01EC0D0
S11300201DC01CC01BC01AC019C011241FBECFEDB7
S1130030CDBF10E0A0E6B0E0E4EDF5E002C005902D
S11300400D92AA38B107D9F720E0AAE8B0E001C0C0
S11300501D92A439B207E1F7F1D1BAC2D1CF97B357
S1130060976097BB97B3986797BBC198662311F0C5
S1130070C09A01C0C098C29A98B3977898BB83FD80
S1130080C69A82FDC59A81FDC49A80FDC39A8DE00B
S11300908A95F1F70000C2980895CF93DF93C82F93
S11300A0D62F82958F70DBDF6D2F8C2FD8DFDF91F9
S11300B0CF9108958FEC97E00197F1F700C000000D
S11300C060E082E0CCDF8FEC97E00197F1F700C0AD
S11300D0000060E088E2E1DF8FEC97E00197F1F740
S11300E000C0000060E081E0D8DF8FEC97E001976A
S11300F0F1F700C0000060E086E0CFDF8FEC97E00E
S11301000197F1F700C0000060E08CE0C6DF0895BD
S1130110EFECF7E03197F1F700C0000060E08C608D
S1130120BCDF0895EFECF7E03197F1F700C0000071
S113013060E08860B2DF08958FEC97E00197F1F7F3
S113014000C0000060E081E0A8DF0895EFECF7E074
S11301503197F1F700C000008295880F880F807CEA
S1130160860F60E0806899DF0895CF93DF93FC01E8
S11301702081222369F0EC018FEC97E00197F1F7DD
S113018000C0000061E0899188DF88818111F4CF8B
S1130190DF91CF910895CF93DF93EC01809192008A
S11301A09091930084369105D0F460E080E0CEDF36
S11301B080E690E0DADF63E080E0C8DF4AE050E008
S11301C0BE018091920090919300C5D1CE01CDDF04
S11301D065E080E0BBDF84E690E0C7DF19C060E043
S11301E080E0B4DF86E690E0C0DF62E080E0AEDF6E
S11301F04AE050E0BE018091920090919300ABD10F
S1130200CE01B3DF65E080E0A1DF84E690E0ADDFFE
S1130210DF91CF9108958E9A96988FE39CE9019788
S1130220F1F700C00000969A08958E988699FECF43
S1130230869BFECF8699FECF089588E090E0869B4A
S1130240FECF20E52A95F1F7869B07C020918A000E
S1130250220F216020938A0005C020918A00220F7A
S113026020938A008699FECF019749F780918A00EE
S1130270089520918C008091900090E0820F911D50
S113028020918B00820F911D20918F00820F911D70
S1130290089560E080E05ADF89E690E066DF60E080
S11302A081E054DF82E790E060DF08950F931F93AD
S11302B0CF93DF938C019B01CB016AE070E038D1CE
S11302C0EB01C901992324F488279927821B930BF6
S11302D08897E9F1CE01DD2324F4882799278C1B24
S11302E09D0B0A97ECF460E081E030DF8BE790E04F
S11302F03CDF63E081E02ADF4AE050E0B801CE0150
S11303002AD1C80132DF65E081E020DF89E790E08F
S11303102CDF66E081E01ADF8FE790E026DF18C06B
S113032060E081E013DF82E890E01FDF62E081E0BB
S11303300DDF4AE050E0B801CE010DD1C80115DF50
S113034065E081E003DF8FE790E00FDF01C0A1DF0C
S1130350DF91CF911F910F910895EF92FF920F9328
S11303601F93CF93DF93EC017B0180918D009091DB
S11303708E006AE070E0C8D0062F172F862F972FC3
S11303808035910509F452C00A9740F560E081E098
S1130390DDDE8BE790E0E9DE63E081E0D7DE4AE072
S11303A050E0BE01802F912FD6D0CE01DEDE64E076
S11303B081E0CCDE85E890E0D8DE65E081E0C6DE51
S11303C04AE050E0BE01C701C6D0CE01CEDE66E0F1
S11303D081E0BCDE87E890E0C8DE29C060E081E00F
S11303E0B5DE82E890E0C1DE62E081E0AFDE4AE0A3
S11303F050E0BE01802F912FAED0CE01B6DE64E076
S113040081E0A4DE85E890E0B0DE65E081E09EDE78
S11304104AE050E0BE01C7019ED0CE01A6DE66E0F0
S113042081E094DE87E890E0A0DE01C032DFDF9156
S1130430CF911F910F91FF90EF900895CF93DF9389
S1130440CDB7DD27C650CDBF35DE76DE84E06ADE6B
S113045080E05EDE0F2EFAE0EF2EF12CF02DDBDED5
S1130460E4DEEBDE80938C00E8DE80939000E5DE32
S113047080938B00E2DE80938F00DFDE182F809361
S11304809100F7DE9927212F30E08217930711F0AE
S113049000DF30C080918C0090E0982F8827209155
S11304A09000820F911DB70143D070939300609325
S11304B09200CE0104966FDE80918B0090E0982F1D
S11304C0882720918F00820F911D90938E00809336
S11304D08D0099234CF49F7766277727681B790B47
S11304E0CE010196E3DE06C0B7010ED0BC01CE01F9
S11304F0019633DF2FEF89E698E121508040904048
S1130500E1F700C00000ABCFAA1BBB1B51E107C041
S1130510AA1FBB1FA617B70710F0A61BB70B881F8F
S1130520991F5A95A9F780959095BC01CD0108951E
S113053097FB072E16F4009406D077FD08D0E4DF6D
S113054007FC05D03EF4909581959F4F08957095D2
S113055061957F4F08954532510518F4423008F0F3
S113056004C0FB011082CB010895BB274A3031F44B
S1130570992322F4BDE2909581959F4F01C0BB273A
S1130580FB015527AA27880F991FAA1FA41710F04B
S1130590A41B83955051B9F7A05DAA3308F0A95D57
S11305A0A193009779F7B111B1931192CB0100C0D7
S11305B0DC01FC01672F71917723E1F7329704C0C6
S11305C07C916D9370836291AE17BF07C8F3089551
S10705D0F894FFCFC9
S11305D4483D20002500483D0053656E73202020CB
S11305E42000457272202020202000543D20004326
S10D05F42000543D002E00430000D7
S9030000FC
