S01A00006469676974616C546865726D6F6D657465722E73726563A0
S113000014C02CC02BC02AC029C028C027C026C0B9
S113001025C024C023C022C021C020C01FC01EC0D0
S11300201DC01CC01BC01AC019C011241FBECFEDB7
S1130030CDBF10E0A0E6B0E0EEE4F4E002C005902D
S11300400D92AE37B107D9F720E0AEE7B0E001C0BA
S11300501D92A838B207E1F72FD1F7C1D1CF97B3DA
S1130060976097BB97B3986797BBC198662311F0C5
S1130070C09A01C0C098C29A98B3977898BB83FD80
S1130080C69A82FDC59A81FDC49A80FDC39A8DE00B
S11300908A95F1F70000C2980895CF93DF93C82F93
S11300A0D62F82958F70DBDF6D2F8C2FD8DFDF91F9
S11300B0CF9108958FEC97E00197F1F700C000000D
S11300C060E082E0CCDF8FEC97E00197F1F700C0AD
S11300D0000060E088E2E1DF8FEC97E00197F1F740
S11300E000C0000060E081E0D8DF8FEC97E001976A
S11300F0F1F700C0000060E086E0CFDF8FEC97E00E
S11301000197F1F700C0000060E08CE0C6DF0895BD
S1130110EFECF7E03197F1F700C0000060E08C608D
S1130120BCDF0895EFECF7E03197F1F700C0000071
S113013060E08860B2DF08958FEC97E00197F1F7F3
S113014000C0000060E081E0A8DF0895EFECF7E074
S11301503197F1F700C000008295880F880F807CEA
S1130160860F60E0806899DF0895CF93DF93FC01E8
S11301702081222369F0EC018FEC97E00197F1F7DD
S113018000C0000061E0899188DF88818111F4CF8B
S1130190DF91CF910895CF93DF93EC0160E080E08D
S11301A0D5DF80E690E0E1DF62E080E0CFDF4AE087
S11301B050E0BE01809186009091870009D1CE0164
S11301C0D4DF65E080E0C2DF83E690E0CEDFDF913C
S11301D0CF9108950F931F93CF93DF93EC018B017D
S11301E060E081E0B3DF85E690E0BFDF62E081E0BC
S11301F0ADDF4AE050E0BE01809181009091820021
S1130200E7D0CE01B2DF64E081E0A0DF88E690E0D1
S1130210ACDF65E081E09ADF4AE050E0BE01C8014E
S1130220D7D0CE01A2DF66E081E090DF8AE690E0DD
S11302309CDFDF91CF911F910F9108958E9A96982C
S11302408FE39CE90197F1F700C00000969A0895A6
S11302508E988699FECF869BFECF8699FECF089511
S113026088E090E0869BFECF20E52A95F1F7869BF7
S113027007C020917E00220F216020937E0005C0DC
S113028020917E00220F20937E008699FECF019755
S113029049F780917E000895209180008091840028
S11302A090E0820F911D20917F00820F911D20917B
S11302B08300820F911D0895CF93DF93CDB7DD277F
S11302C0C350CDBFF7DE38DF84E02CDF80E020DFD1
S11302D00F2EFAE0EF2EF12CF02DB0DFB9DFC0DFE6
S11302E080938000BDDF80938400BADF80937F0019
S11302F0B7DF80938300B4DF182F80938500CCDFB1
S1130300212F30E08217930769F060E080E01EDF60
S11303108CE690E02ADF60E081E018DF85E790E07A
S113032024DF25C08091800090E0982F88272091B9
S11303308400820F911DB70138D0709387006093B9
S11303408600CE01019627DF80917F0090E0982FF0
S1130350882720918300820F911D909382008093BF
S11303608100B7010ED0BC01CE01019633DF2FEF1F
S113037089E698E1215080409040E1F700C00000F8
S1130380ACCFAA1BBB1B51E107C0AA1FBB1FA617FA
S1130390B70710F0A61BB70B881F991F5A95A9F72A
S11303A080959095BC01CD01089597FB072E16F416
S11303B0009406D077FD08D0E4DF07FC05D03EF4B6
S11303C0909581959F4F0895709561957F4F0895FD
S11303D04532510518F4423008F004C0FB01108284
S11303E0CB010895BB274A3031F4992322F4BDE2AE
S11303F0909581959F4F01C0BB27FB015527AA27E4
S1130400880F991FAA1FA41710F0A41B839550519D
S1130410B9F7A05DAA3308F0A95DA193009779F715
S1130420B111B1931192CB0100C0DC01FC01672F23
S113043071917723E1F7329704C07C916D937083B7
S11104406291AE17BF07C8F30895F894FFCF7A
S113044E483D002500543D002E00430053656E7355
S111045E202020200045727220202020200043
S9030000FC
