S01A00006469676974616C546865726D6F6D657465722E73726563A0
S113000014C02CC02BC02AC029C028C027C026C0B9
S113001025C024C023C022C021C020C01FC01EC0D0
S11300201DC01CC01BC01AC019C011241FBECFEDB7
S1130030CDBF10E0A0E6B0E0EEE9FAE002C0059022
S11300400D92A638B107D9F720E0A6E8B0E001C0C8
S11300501D92A039B207E1F771D11FC5D1CF97B373
S1130060976097BB97B3986797BBC198662311F0C5
S1130070C09A01C0C098C29A98B3977898BB83FD80
S1130080C69A82FDC59A81FDC49A80FDC39A8DE00B
S11300908A95F1F70000C2980895CF93DF93C82F93
S11300A0D62F82958F70DBDF6D2F8C2FD8DFDF91F9
S11300B0CF9108958FEC97E00197F1F700C000000D
S11300C060E082E0CCDF8FEC97E00197F1F700C0AD
S11300D0000060E088E2E1DF8FEC97E00197F1F740
S11300E000C0000060E081E0D8DF8FEC97E001976A
S11300F0F1F700C0000060E086E0CFDF8FEC97E00E
S11301000197F1F700C0000060E08CE0C6DF0895BD
S1130110EFECF7E03197F1F700C0000060E08C608D
S1130120BCDF0895EFECF7E03197F1F700C0000071
S113013060E08860B2DF08958FEC97E00197F1F7F3
S113014000C0000060E081E0A8DF0895EFECF7E074
S11301503197F1F700C000008295880F880F807CEA
S1130160860F60E0806899DF0895CF93DF93FC01E8
S11301702081222369F0EC018FEC97E00197F1F7DD
S113018000C0000061E0899188DF88818111F4CF8B
S1130190DF91CF910895CF93DF93EC0160E080E08D
S11301A0D5DF80E690E0E1DF62E080E0CFDF4AE087
S11301B050E0BE0180918E0090918F0057D1CE0106
S11301C0D4DF65E080E0C2DF83E690E0CEDFDF913C
S11301D0CF9108950F931F93CF93DF93082F192F77
S11301E0EB01663F7F4FBCF460E081E0AFDFCE01FE
S11301F06AE070E028D17F936F9385E690E09F9347
S11302008F931F930F935FD10F900F900F900F90C8
S11302100F900F901CC060E081E098DF8CE690E0C6
S1130220A4DF62E081E092DFCE016AE070E00BD1EE
S1130230CB014AE050E0602F712F18D1802F912F0D
S113024094DF65E081E082DF8FE690E08EDFDF916E
S1130250CF911F910F9108950F931F93CF93DF9325
S1130260EC018B0160E081E071DF8CE690E07DDFE2
S113027062E081E06BDF4AE050E0BE0180918900DA
S113028090918A00F3D0CE0170DF64E081E05EDFFC
S113029081E790E06ADF65E081E058DF4AE050E002
S11302A0BE01C801E3D0CE0160DF66E081E04EDF2D
S11302B08FE690E05ADFDF91CF911F910F9108955F
S11302C08E9A96988FE39CE90197F1F700C000009D
S11302D0969A08958E988699FECF869BFECF86992E
S11302E0FECF089588E090E0869BFECF20E52A9516
S11302F0F1F7869B07C020918600220F216020938E
S1130300860005C020918600220F209386008699DE
S1130310FECF019749F780918600089520918800C7
S113032080918C0090E0820F911D20918700820FB4
S1130330911D20918B00820F911D0895CF93DF931F
S1130340CDB7DD27C650CDBFB5DEF6DE84E0EADEEC
S113035080E0DEDE0F2EFAE0EF2EF12CF02DB0DF80
S1130360B9DFC0DF80938800BDDF80938C00BADFE3
S113037080938700B7DF80938B00B4DF182F8093BE
S11303808D00CCDF9927212F30E08217930769F085
S113039060E080E0DBDE83E790E0E7DE60E081E0C0
S11303A0D5DE8CE790E0E1DE30C08091880090E0FB
S11303B0982F882720918C00820F911DB70143D07C
S11303C070938F0060938E00CE010496E4DE8091DA
S11303D0870090E0982F882720918B00820F911D31
S11303E090938A008093890099234CF49F77662721
S11303F07727681B790BCE010196ECDE06C0B701A6
S11304000ED0BC01CE01019627DF2FEF89E698E1DB
S1130410215080409040E1F700C00000A0CFAA1B0B
S1130420BB1B51E107C0AA1FBB1FA617B70710F0DB
S1130430A61BB70B881F991F5A95A9F7809590950D
S1130440BC01CD01089597FB072E16F4009406D045
S113045077FD08D0E4DF07FC05D03EF49095819544
S11304609F4F0895709561957F4F089545325105CA
S113047018F4423008F004C0FB011082CB01089547
S1130480BB274A3031F4992322F4BDE2909581953B
S11304909F4F01C0BB27FB015527AA27880F991F2F
S11304A0AA1FA41710F0A41B83955051B9F7A05D9F
S11304B0AA3308F0A95DA193009779F7B111B1931C
S11304C01192CB0108C2AEE0B0E0E8E6F2E0C6C2A9
S11304D00D891E8986E08C831A8309838FEF9FE739
S11304E09E838D83AE01475E5F4F6F89788DCE0109
S11304F0019608D0EF81F885E00FF11F10822E9647
S1130500E4E0C3C2ABE0B0E0E7E8F2E099C26C011A
S11305107B018A01FC0117821682838181FFC0C19D
S1130520CE0101963C01F6019381F70193FD85917B
S113053093FF81917F01882309F4AEC1853239F498
S113054093FD859193FF81917F01853221F4B6015A
S113055090E0D1D1E8CF912C212C312CFFE1F3157F
S1130560E0F08B3279F038F4803279F08332A9F4F8
S1130570232D206110C08D3259F0803371F4232D66
S1130580216009C0832D8260382EE32DE46022C0EF
S1130590F32DF86025C0322E27C037FC2DC020ED86
S11305A0280F2A3088F436FE06C0892D6AE03FD22F
S11305B0922E980E19C0822D6AE039D2222E280E6E
S11305C0832D8062382E10C08E3231F436FC64C123
S11305D0E32DE0643E2E08C08C3621F4F32DF06840
S11305E03F2E02C0883641F4F70193FD859193FFB5
S11305F081917F018111B2CF982F9F7D95549330C3
S113060028F40C5F1F4F2FE329830DC0833631F08C
S1130610833771F0833509F055C020C0F80180811B
S113062089830E5F1F4F88248394912C530112C039
S11306302801F2E04F0E511CF801A080B18036FE73
S113064003C0692D70E002C06FEF7FEFC50138D1A0
S11306504C018201F32DFF773F2E15C0280122E0C3
S1130660420E511CF801A080B18036FE03C0692DF2
S113067070E002C06FEF7FEFC50117D14C01F32D7D
S1130680F0683F2E820133FC19C0822D90E0881659
S11306909906A0F4B60180E290E02DD12A94F5CF1A
S11306A0F50137FC859137FE81915F01B60190E039
S11306B022D121102A9421E0821A910881149104F4
S11306C079F7E1C0843611F0893639F5F80137FE3F
S11306D007C060817181828193810C5F1F4F08C0C4
S11306E060817181072E000C880B990B0E5F1F4FE0
S11306F0F32DFF763F2E97FF09C090958095709556
S113070061957F4F8F4F9F4FF0683F2E2AE030E076
S1130710A3012DD1882E861844C0853731F4232DAA
S11307202F7EB22E2AE030E025C0932D997FB92E7A
S11307308F36C1F018F4883579F0AEC0803719F0DF
S1130740883721F0A9C0E92FE061BE2EB4FE0DC0A8
S1130750FB2DF460BF2E09C034FE0AC0292F266089
S1130760B22E06C028E030E005C020E130E002C02F
S113077020E132E0F801B7FE07C060817181828117
S113078093810C5F1F4F06C06081718180E090E00F
S11307900E5F1F4FA301EBD0882E8618FB2DFF7729
S11307A03F2E36FE0DC0232D2E7FA22E891458F421
S11307B034FE0BC032FC09C0832D8E7EA82E05C0EA
S11307C0B82CA32C03C0B82C01C0B92CA4FE0FC0B4
S11307D0FE01E80DF11D8081803321F49A2D997E6C
S11307E0A92E09C0A2FE06C0B394B39404C08A2DF6
S11307F0867809F0B394A3FC10C0A0FE06C0B2141E
S113080080F4280C922C9B180DC0B21458F4B60135
S113081080E290E070D0B394F8CFB21418F42B189F
S113082002C0982C212CA4FE0FC0B60180E390E0F6
S113083062D0A2FE16C0A1FC03C088E790E002C00B
S113084088E590E0B6010CC08A2D867851F0A1FEAF
S113085002C08BE201C080E2A7FC8DE2B60190E009
S11308604AD0891430F4B60180E390E044D09A94DD
S1130870F8CF8A94F301E80DF11D8081B60190E070
S11308803AD08110F6CF222009F44DCEB60180E291
S113089090E031D02A94F7CFF6018681978102C087
S11308A08FEF9FEF2B96E2E1E2C0FC0105906150CF
S11308B070400110D8F7809590958E0F9F1F089572
S11308C0FC016150704001900110D8F7809590951B
S11308D08E0F9F1F0895DC01FC01672F7191772310
S11308E0E1F7329704C07C916D9370836291AE17E7
S11308F0BF07C8F308950F931F93CF93DF93FB01B2
S1130900238121FD03C08FEF9FEF2CC022FF16C06F
S113091046815781248135814217530744F4A081CD
S1130920B1819D012F5F3F4F318320838C932681BA
S113093037812F5F3F4F3783268314C08B01EC012F
S1130940FB010084F185E02D0995892BE1F6D8019E
S113095016968D919C911797019617969C938E935A
S11309601697CE01DF91CF911F910F910895FA014F
S1130970AA27283061F1203191F1E8946F936E7FBA
S11309806E5F7F4F8F4F9F4FAF4FB1E040D0B4E0C9
S11309903ED0670F781F891F9A1FA11D680F791F0A
S11309A08A1F911DA11D6A0F711D811D911DA11D1D
S11309B022D009F468943F91062E000C3019000CE3
S11309C0000C3019305D3193CEF6CF010895462FD7
S11309D04770405D4193B3E00FD0C9F7F6CF462F7F
S11309E04F70405D4A3318F0495D31FD40524193E8
S11309F002D0A9F7EACFB4E0A695979587957795A5
S1130A006795BA95C9F700976105710508959B012B
S1130A10AC010A2E06945795479537952795BA95B4
S1130A20C9F7620F731F841F951FA01D089500242A
S1130A3080FD060E660F11F08695D1F7802D08957E
S1130A402F923F924F925F926F927F928F929F92DA
S1130A50AF92BF92CF92DF92EF92FF920F931F93C8
S1130A60CF93DF93CDB7CA1BCDBFDD2709942A8866
S1130A70398848885F846E847D848C849B84AA84AE
S1130A80B984C884DF80EE80FD800C811B81AA813B
S1110A90D981CE0FCDBFCA2F0895F894FFCFA1
S1130A9E483D00250054203D20256400543D00436C
S1130AAE002E0053656E73202020200045727220A4
S1090ABE202020200000AE
S9030000FC
